{
  "_format": "hh-sol-artifact-1",
  "contractName": "SimpleLiquidityPool",
  "sourceName": "contracts/LiquidityPool.sol",
  "abi": [
    {
      "inputs": [
        {
          "internalType": "address",
          "name": "_tokenA",
          "type": "address"
        },
        {
          "internalType": "address",
          "name": "_tokenB",
          "type": "address"
        }
      ],
      "stateMutability": "nonpayable",
      "type": "constructor"
    },
    {
      "anonymous": false,
      "inputs": [
        {
          "indexed": true,
          "internalType": "address",
          "name": "provider",
          "type": "address"
        },
        {
          "indexed": false,
          "internalType": "uint256",
          "name": "amountA",
          "type": "uint256"
        },
        {
          "indexed": false,
          "internalType": "uint256",
          "name": "amountB",
          "type": "uint256"
        }
      ],
      "name": "LiquidityAdded",
      "type": "event"
    },
    {
      "anonymous": false,
      "inputs": [
        {
          "indexed": true,
          "internalType": "address",
          "name": "provider",
          "type": "address"
        },
        {
          "indexed": false,
          "internalType": "uint256",
          "name": "amountA",
          "type": "uint256"
        },
        {
          "indexed": false,
          "internalType": "uint256",
          "name": "amountB",
          "type": "uint256"
        }
      ],
      "name": "LiquidityRemoved",
      "type": "event"
    },
    {
      "anonymous": false,
      "inputs": [
        {
          "indexed": true,
          "internalType": "address",
          "name": "trader",
          "type": "address"
        },
        {
          "indexed": false,
          "internalType": "address",
          "name": "inputToken",
          "type": "address"
        },
        {
          "indexed": false,
          "internalType": "uint256",
          "name": "inputAmount",
          "type": "uint256"
        },
        {
          "indexed": false,
          "internalType": "uint256",
          "name": "outputAmount",
          "type": "uint256"
        }
      ],
      "name": "TokenSwapped",
      "type": "event"
    },
    {
      "inputs": [
        {
          "internalType": "uint256",
          "name": "amountA",
          "type": "uint256"
        },
        {
          "internalType": "uint256",
          "name": "amountB",
          "type": "uint256"
        }
      ],
      "name": "addLiquidity",
      "outputs": [],
      "stateMutability": "nonpayable",
      "type": "function"
    },
    {
      "inputs": [
        {
          "internalType": "uint256",
          "name": "share",
          "type": "uint256"
        }
      ],
      "name": "removeLiquidity",
      "outputs": [],
      "stateMutability": "nonpayable",
      "type": "function"
    },
    {
      "inputs": [],
      "name": "reserveA",
      "outputs": [
        {
          "internalType": "uint256",
          "name": "",
          "type": "uint256"
        }
      ],
      "stateMutability": "view",
      "type": "function"
    },
    {
      "inputs": [],
      "name": "reserveB",
      "outputs": [
        {
          "internalType": "uint256",
          "name": "",
          "type": "uint256"
        }
      ],
      "stateMutability": "view",
      "type": "function"
    },
    {
      "inputs": [
        {
          "internalType": "address",
          "name": "inputToken",
          "type": "address"
        },
        {
          "internalType": "uint256",
          "name": "inputAmount",
          "type": "uint256"
        }
      ],
      "name": "swap",
      "outputs": [],
      "stateMutability": "nonpayable",
      "type": "function"
    },
    {
      "inputs": [],
      "name": "tokenA",
      "outputs": [
        {
          "internalType": "contract IERC20",
          "name": "",
          "type": "address"
        }
      ],
      "stateMutability": "view",
      "type": "function"
    },
    {
      "inputs": [],
      "name": "tokenB",
      "outputs": [
        {
          "internalType": "contract IERC20",
          "name": "",
          "type": "address"
        }
      ],
      "stateMutability": "view",
      "type": "function"
    }
  ],
  "bytecode": "0x608060405234801561001057600080fd5b506040516113e03803806113e08339818101604052810190610032919061011d565b816000806101000a81548173ffffffffffffffffffffffffffffffffffffffff021916908373ffffffffffffffffffffffffffffffffffffffff16021790555080600160006101000a81548173ffffffffffffffffffffffffffffffffffffffff021916908373ffffffffffffffffffffffffffffffffffffffff160217905550505061015d565b600080fd5b600073ffffffffffffffffffffffffffffffffffffffff82169050919050565b60006100ea826100bf565b9050919050565b6100fa816100df565b811461010557600080fd5b50565b600081519050610117816100f1565b92915050565b60008060408385031215610134576101336100ba565b5b600061014285828601610108565b925050602061015385828601610108565b9150509250929050565b6112748061016c6000396000f3fe608060405234801561001057600080fd5b506004361061007d5760003560e01c80639c8f9f231161005b5780639c8f9f23146100dc5780639cd441da146100f8578063d004f0f714610114578063dc5fa6c5146101305761007d565b80630fc63d101461008257806319e36f3b146100a05780635f64b55b146100be575b600080fd5b61008a61014e565b6040516100979190610b81565b60405180910390f35b6100a8610172565b6040516100b59190610bb5565b60405180910390f35b6100c6610178565b6040516100d39190610b81565b60405180910390f35b6100f660048036038101906100f19190610c01565b61019e565b005b610112600480360381019061010d9190610c2e565b610441565b005b61012e60048036038101906101299190610cac565b61065a565b005b610138610afc565b6040516101459190610bb5565b60405180910390f35b60008054906101000a900473ffffffffffffffffffffffffffffffffffffffff1681565b60035481565b600160009054906101000a900473ffffffffffffffffffffffffffffffffffffffff1681565b600081116101e1576040517f08c379a00000000000000000000000000000000000000000000000000000000081526004016101d890610d49565b60405180910390fd5b6000670de0b6b3a7640000826002546101fa9190610d98565b6102049190610e09565b90506000670de0b6b3a76400008360035461021f9190610d98565b6102299190610e09565b905060008211801561023b5750600081115b61027a576040517f08c379a000000000000000000000000000000000000000000000000000000000815260040161027190610e86565b60405180910390fd5b816002600082825461028c9190610ea6565b9250508190555080600360008282546102a59190610ea6565b9250508190555060008054906101000a900473ffffffffffffffffffffffffffffffffffffffff1673ffffffffffffffffffffffffffffffffffffffff1663a9059cbb33846040518363ffffffff1660e01b8152600401610307929190610ee9565b6020604051808303816000875af1158015610326573d6000803e3d6000fd5b505050506040513d601f19601f8201168201806040525081019061034a9190610f4a565b50600160009054906101000a900473ffffffffffffffffffffffffffffffffffffffff1673ffffffffffffffffffffffffffffffffffffffff1663a9059cbb33836040518363ffffffff1660e01b81526004016103a8929190610ee9565b6020604051808303816000875af11580156103c7573d6000803e3d6000fd5b505050506040513d601f19601f820116820180604052508101906103eb9190610f4a565b503373ffffffffffffffffffffffffffffffffffffffff167f96cd817c6329656790ef8fba7675405193677d39619571282f5e21f3a98cd0598383604051610434929190610f77565b60405180910390a2505050565b6000821180156104515750600081115b610490576040517f08c379a000000000000000000000000000000000000000000000000000000000815260040161048790611012565b60405180910390fd5b60008054906101000a900473ffffffffffffffffffffffffffffffffffffffff1673ffffffffffffffffffffffffffffffffffffffff166323b872dd3330856040518463ffffffff1660e01b81526004016104ed93929190611032565b6020604051808303816000875af115801561050c573d6000803e3d6000fd5b505050506040513d601f19601f820116820180604052508101906105309190610f4a565b50600160009054906101000a900473ffffffffffffffffffffffffffffffffffffffff1673ffffffffffffffffffffffffffffffffffffffff166323b872dd3330846040518463ffffffff1660e01b815260040161059093929190611032565b6020604051808303816000875af11580156105af573d6000803e3d6000fd5b505050506040513d601f19601f820116820180604052508101906105d39190610f4a565b5081600260008282546105e69190611069565b9250508190555080600360008282546105ff9190611069565b925050819055503373ffffffffffffffffffffffffffffffffffffffff167fac1d76749e5447b7b16f5ab61447e1bd502f3bb4807af3b28e620d1700a6ee45838360405161064e929190610f77565b60405180910390a25050565b6000811161069d576040517f08c379a00000000000000000000000000000000000000000000000000000000081526004016106949061110f565b60405180910390fd5b60008054906101000a900473ffffffffffffffffffffffffffffffffffffffff1673ffffffffffffffffffffffffffffffffffffffff168273ffffffffffffffffffffffffffffffffffffffff1614806107445750600160009054906101000a900473ffffffffffffffffffffffffffffffffffffffff1673ffffffffffffffffffffffffffffffffffffffff168273ffffffffffffffffffffffffffffffffffffffff16145b610783576040517f08c379a000000000000000000000000000000000000000000000000000000000815260040161077a9061117b565b60405180910390fd5b60008060009054906101000a900473ffffffffffffffffffffffffffffffffffffffff1673ffffffffffffffffffffffffffffffffffffffff168373ffffffffffffffffffffffffffffffffffffffff1614905060008161080657600160009054906101000a900473ffffffffffffffffffffffffffffffffffffffff16610828565b60008054906101000a900473ffffffffffffffffffffffffffffffffffffffff165b90506000826108575760008054906101000a900473ffffffffffffffffffffffffffffffffffffffff1661087b565b600160009054906101000a900473ffffffffffffffffffffffffffffffffffffffff165b905060008361088c57600354610890565b6002545b90506000846108a1576002546108a5565b6003545b905060006103e86103e5886108ba9190610d98565b6108c49190610e09565b9050600081846108d49190611069565b83836108e09190610d98565b6108ea9190610e09565b90506000811161092f576040517f08c379a0000000000000000000000000000000000000000000000000000000008152600401610926906111e7565b60405180910390fd5b8573ffffffffffffffffffffffffffffffffffffffff166323b872dd33308b6040518463ffffffff1660e01b815260040161096c93929190611032565b6020604051808303816000875af115801561098b573d6000803e3d6000fd5b505050506040513d601f19601f820116820180604052508101906109af9190610f4a565b508473ffffffffffffffffffffffffffffffffffffffff1663a9059cbb33836040518363ffffffff1660e01b81526004016109eb929190610ee9565b6020604051808303816000875af1158015610a0a573d6000803e3d6000fd5b505050506040513d601f19601f82011682018060405250810190610a2e9190610f4a565b508615610a6c578760026000828254610a479190611069565b925050819055508060036000828254610a609190610ea6565b92505081905550610a9f565b8760036000828254610a7e9190611069565b925050819055508060026000828254610a979190610ea6565b925050819055505b3373ffffffffffffffffffffffffffffffffffffffff167f30b60ee4dc75c0fb04420331b13e9ad7f8ff8fc51eac9c97d36fb20ccbe09d668a8a84604051610ae993929190611207565b60405180910390a2505050505050505050565b60025481565b600073ffffffffffffffffffffffffffffffffffffffff82169050919050565b6000819050919050565b6000610b47610b42610b3d84610b02565b610b22565b610b02565b9050919050565b6000610b5982610b2c565b9050919050565b6000610b6b82610b4e565b9050919050565b610b7b81610b60565b82525050565b6000602082019050610b966000830184610b72565b92915050565b6000819050919050565b610baf81610b9c565b82525050565b6000602082019050610bca6000830184610ba6565b92915050565b600080fd5b610bde81610b9c565b8114610be957600080fd5b50565b600081359050610bfb81610bd5565b92915050565b600060208284031215610c1757610c16610bd0565b5b6000610c2584828501610bec565b91505092915050565b60008060408385031215610c4557610c44610bd0565b5b6000610c5385828601610bec565b9250506020610c6485828601610bec565b9150509250929050565b6000610c7982610b02565b9050919050565b610c8981610c6e565b8114610c9457600080fd5b50565b600081359050610ca681610c80565b92915050565b60008060408385031215610cc357610cc2610bd0565b5b6000610cd185828601610c97565b9250506020610ce285828601610bec565b9150509250929050565b600082825260208201905092915050565b7f5368617265206d7573742062652067726561746572207468616e207a65726f00600082015250565b6000610d33601f83610cec565b9150610d3e82610cfd565b602082019050919050565b60006020820190508181036000830152610d6281610d26565b9050919050565b7f4e487b7100000000000000000000000000000000000000000000000000000000600052601160045260246000fd5b6000610da382610b9c565b9150610dae83610b9c565b9250828202610dbc81610b9c565b91508282048414831517610dd357610dd2610d69565b5b5092915050565b7f4e487b7100000000000000000000000000000000000000000000000000000000600052601260045260246000fd5b6000610e1482610b9c565b9150610e1f83610b9c565b925082610e2f57610e2e610dda565b5b828204905092915050565b7f496e73756666696369656e74206c697175696469747900000000000000000000600082015250565b6000610e70601683610cec565b9150610e7b82610e3a565b602082019050919050565b60006020820190508181036000830152610e9f81610e63565b9050919050565b6000610eb182610b9c565b9150610ebc83610b9c565b9250828203905081811115610ed457610ed3610d69565b5b92915050565b610ee381610c6e565b82525050565b6000604082019050610efe6000830185610eda565b610f0b6020830184610ba6565b9392505050565b60008115159050919050565b610f2781610f12565b8114610f3257600080fd5b50565b600081519050610f4481610f1e565b92915050565b600060208284031215610f6057610f5f610bd0565b5b6000610f6e84828501610f35565b91505092915050565b6000604082019050610f8c6000830185610ba6565b610f996020830184610ba6565b9392505050565b7f416d6f756e7473206d7573742062652067726561746572207468616e207a657260008201527f6f00000000000000000000000000000000000000000000000000000000000000602082015250565b6000610ffc602183610cec565b915061100782610fa0565b604082019050919050565b6000602082019050818103600083015261102b81610fef565b9050919050565b60006060820190506110476000830186610eda565b6110546020830185610eda565b6110616040830184610ba6565b949350505050565b600061107482610b9c565b915061107f83610b9c565b925082820190508082111561109757611096610d69565b5b92915050565b7f496e70757420616d6f756e74206d75737420626520677265617465722074686160008201527f6e207a65726f0000000000000000000000000000000000000000000000000000602082015250565b60006110f9602683610cec565b91506111048261109d565b604082019050919050565b60006020820190508181036000830152611128816110ec565b9050919050565b7f496e76616c696420696e70757420746f6b656e00000000000000000000000000600082015250565b6000611165601383610cec565b91506111708261112f565b602082019050919050565b6000602082019050818103600083015261119481611158565b9050919050565b7f496e73756666696369656e74206f757470757420616d6f756e74000000000000600082015250565b60006111d1601a83610cec565b91506111dc8261119b565b602082019050919050565b60006020820190508181036000830152611200816111c4565b9050919050565b600060608201905061121c6000830186610eda565b6112296020830185610ba6565b6112366040830184610ba6565b94935050505056fea264697066735822122085e7562aa9303fe49dd6c67e477779a46c31bd8d8a6f6f0e39dce76619513b9864736f6c634300081c0033",
  "linkReferences": {},
  "deployedLinkReferences": {}
}